:10000E00E4FFFEFDE54C54C0FCE4FBFAF922AB46DE
:05001E00AA47A94822D9
:032A210002284345
:022572008F4296
:10257400ED30E41AE545C313FFED44A04FF546EBF7
:102584004480F547E54530E011434608800CED44AE
:10259400A04545F546EB4480F547122A1DAF42128B
:1025A4002A127B007A0079467D021229CA7B007ABE
:0B25B400007900E4FD1229D602286720
:021B9C008F4276
:101B9E00E4F54BED30E41AE545C313FFED44A04FD9
:101BAE00F549EB4480F54AE54530E011434908809C
:101BBE000CED44A04545F549EB4480F54AE4F54F5C
:101BCE00F54EF54DF54C122A1DAF42122A127B002E
:101BDE007A0079497D021229CA7B007A00794C7D00
:101BEE00031229D612286712000E78C0C31205B749
:101BFE007003754B0112000EF8C31205B770037512
:101C0E004B02AF4FAE4EAD4DAC4C780E1205C8ED3B
:101C1E005401FDE48F4F8E4E8D4DF54CAC4C1200A1
:101C2E001C1205FC12001C1205DCE4FFFEED540133
:101C3E00FDE4FCFBFA7901F8C31205A1700D120048
:0D1C4E001C1205DC74FFFDFC1205FCAF4B01
:011C5B002266
:10180300005EBCE2613FDD83C29C7E20A3FD1F41DD
:101813009DC3217FFCA2401E5F01E3BD3E6082DCCD
:10182300237D9FC1421CFEA0E1BF5D0380DE3C62BD
:10183300BEE0025CDF81633D7C22C09E1D43A1FFAD
:101843004618FAA427799BC584DA3866E5BB59079D
:10185300DB856739BAE406581947A5FB7826C49A8D
:10186300653BD987045AB8E6A7F91B45C6987A247D
:10187300F8A6441A99C7257B3A6486D85B05E7B96D
:101883008CD2306EEDB3510F4E10F2AC2F7193CD5D
:10189300114FADF3702ECC92D38D6F31B2EC0E504D
:1018A300AFF1134DCE90722C6D33D18F0C52B0EE3D
:1018B300326C8ED0530DEFB1F0AE4C1291CF2D732D
:1018C300CA947628ABF517490856B4EA6937D58B1D
:1018D3005709EBB536688AD495CB2977F4AA48160D
:1018E300E9B7550B88D6346A2B7597C94A14F6A8FD
:1018F300742AC896154BA9F7B6E80A54D7896B35ED
:0A1903000000000000002B96B9DD83
:0326B90001560ABD
:101D1600151FA81FEDF6151FA81FEFF6A81FE6FF53
:101D2600C39402229011A2120699E54075F010A400
:101D3600F58285F083020487A81FE6FF25E025E0EB
:101D4600246FF82275F010A4FFAEF09011A21206CF
:101D560099E92FF9EA3EFA90000D1206A57889E670
:101D660022A81FE625E025E0246DF822E55675F049
:101D760064A4FFC3E5589FE55795F022EF25E025BB
:101D8600E0246CF822EF25E025E0246EF822120507
:101D9600302400FFE5F0343A22151F151FA81F2234
:10204A00121D9FECF608EDF6151F121D9F12069041
:06205A00E51F24FCF51F48
:10206000F80808E4F6A81FF608F6E51F2407F9A803
:102070001FE6FE08E6FFC3099719E76480F8EE64DF
:1020800080985031E51F2404F81206778F828E83E2
:10209000120487A81F080866FFE51F2403F8EFF65F
:1020A000E690180393A81F0808F6A81F0806E6186C
:0B20B00070B80680B5A81F0808E6FF06
:0720BB00E51F2409F51F22B7
:07000300ED6F90180393FF5D
:01000A0022D3
:1028AC00EF701B7598D0E589540F4420F589438E41
:1028BC0008ED90190293F58DD28ED2ACC2BCD2AF7A
:0128CC0022E9
:1026F100E4F55CF55BF55AF559F560F55FF55EF5C6
:102701005D755564FF121D82E4F6EF121D6AE4F651
:0F271100121D8BE4F6EF121D42E4F60FBF02E635
:012720002296
:10290A00D2AFD2A9C2BBE589540F4401F589E4F5D7
:0B291A008E758CAFF58AD28C0226F17E
:02227300151F35
:10227500A81FE4F6121D225054EF121D42E6FFD3AB
:1022850094004032121D67E6702CEF30E00D121DF0
:102295003EE6D3940140047D0180067D00A81FE63B
:1022A500FF122681121D3E16E6600B121D8BE6FEFF
:1022B500EF121D6AEEF6121D67E6600116121D3E4D
:0D22C500E67004FD122681A81F0602227992
:0322D200051F22C3
:03000B00021F4988
:101F4900C0E0C0F0C083C082C0D0E8C0E0E9C0E012
:101F5900EAC0E0EBC0E0ECC0E0EDC0E0EEC0E0EFCD
:101F6900C0E0758CAFE55C2401FFE4355BFEE43528
:101F79005AFDE435598F5C8E5B8D5AF559D5551B41
:101F8900E5602401FFE4355FFEE4355EFDE4355D7F
:101F99008F608E5F8D5EF55D755564122273120038
:101FA90026D0E0FFD0E0FED0E0FDD0E0FCD0E0FBA1
:101FB900D0E0FAD0E0F9D0E0F8D0D0D082D083D008
:041FC900F0D0E03242
:10298100121D16500808E6FE121D82EEF6051F05FF
:022991001F2203
:1023DC00121D9FEAF608EBF6121D16503EEF121D69
:1023EC0042E67037A81FE6FB121D6AE6702DA81F87
:1023FC0008E625E004FFA81FE6FA121D42EFF6A836
:10240C001F0808E6FE08E6FF7C007D0A1204FAEAC3
:10241C00121D8CEFF6EB121D6AE4F6E51F2404F591
:02242C001F226D
:10268100121D165017121D82E66011A81F08E67070
:10269100047F0180027F00A81F08EFF6A81FE670E3
:1026A1000608E624FF9290A81FE6B4010608E62476
:0826B100FF9291051F051F2295
:0C29B000C2AFAF5CAE5BAD5AAC59D2AF09
:0129BC0022F8
:0C29BD00C2AFAF60AE5FAD5EAC5DD2AFEC
:0129C90022EB
:1028ED00151FA81FEFF6A81FE67004F557F5583011
:0D28FD004308121D725003E4F5D3051F229D
:1028CD00D243E4F557F558EF6004F556800375567D
:1028DD000AE4F5D975D2FF75D940F5D375EF062207
:0A29F800C243E4F557F558F5D92263
:100026000558E55870020557304308121D725003F3
:04003600E4F5D322F8
:04274E008E418F42E7
:10275200E4F543F544C3E5449542E54395415016FB
:102762007FE87E031223317F011228ED0544E54400
:0627720070E3054380DF67
:01277800223E
:042331008E458F4600
:10233500D3E54694FAE5459400500FEFD394004059
:1023450041007E0300DEFD1F80F185454785464837
:10235500D3E54894FAE547940040157FFA7E0012CC
:10236500233174062548F54874FF3547F54780E065
:10237500D3E5469400E54594004007AF48AE4712C3
:02238500233102
:012387002233
:0824D2008B4B8A4C894D8D4EA5
:1024DA007F011228EDAB4FAA50A951121D94FE8517
:1024EA004B52854C53854D54E4FDEDC3954E501B1C
:1024FA00EF2DF582E43EF583E493AB52AA53A95437
:10250A008D827583001204C60D80DFAB4FAA50A9D5
:08251A0051E4854EF002055B5F
:081EBF008B468A4789488D49D2
:101EC7007880E664F1707A1229F8C2AF758F01AB9A
:101ED7004AAA4BA94C121D947865F608EFF6AB4653
:101EE700AA47A9487869120690E47867F67867E602
:101EF700C3954950337869E475F0011206801204DE
:101F07006E7868F675B7A57880E6F5B77868E6FF66
:101F170078650806E618CCE6CC70010614F5828CC5
:101F270083EFF078670680C5E4F58F53B6F0AB4AC8
:101F3700AA4BA94C8549F012055BD2AFE4FF1228E2
:011F4700CDCC
:011F48002276
:10242E007880E664F1704AC2AF1229F8758F03788E
:10243E0066763A087600E47865F675B7A57880E694
:10244E00F5B77866E6FE08E6F5828E83E4F07F0146
:10245E001228ED7867E426F618740236F61806E6AA
:10246E00C3940140D5E4F58F53B6F0D2AFFF1228D6
:01247E00CD90
:01247F00223A
:101DA60012242EE4F544F545F54A754B00754C446E
:101DB6007B017A0079B37D16121EBF121E17F541FC
:101DC600E541C378AC965042E4F540121D2A6035D1
:101DD600E540121D4A8541F0A429F9EA35F0FAEBEF
:101DE600C0E0EAC0E0E9C0E0121D2AFD754A0075B0
:101DF6004B00754C44D0E0F9D0E0FAD0E0FB121E5F
:101E0600BF054080C60541021DC6121E177880F622
:101E160022754212754334754A00754B00754C4461
:0D1E26007B007A0079427D02121EBFE4228B
:031C5C00CCEFCCFE
:101C5F00E4F549F54AF546F54F7550007551497B46
:101C6F00017A0079B37D161224D2121CFD7004E59F
:101C7F004764127003434601EC606DE4F545E5459A
:101C8F00C378AC965055E4F5449011A2120699E52D
:101C9F0044121D326040E544121D4A8545F0A429C7
:101CAF00F9EA35F0FAEBC0E0EAC0E0E9C0E09011E4
:101CBF00A212069975F010E544121D35FD754F00FF
:101CCF00755000755149D0E0F9D0E0FAD0E0FB1221
:101CDF0024D2054480B30545021C8D121CFD7004EF
:0D1CEF00E547641270058000434602AF46D1
:101CFC0022754F007550007551497B007A00794769
:0A1D0C007D021224D2E5486434225F
:0B29ED00245265763A20383320240085
:101ADA00E53075F010A4FFAEF09011A2020699E568
:101AEA002D75F010A4F58285F083020487E493FF34
:101AFA003395E0FEEF24D0FFEE34FFFE7C000204B3
:101B0A00E8E543C4F8540FC868FFE542C454F048F6
:101B1A00FE229000B3788DE6FC08E6FDE0FAA3E029
:101B2A00FB22E92FF9EA3EFA90000D0206A5E92FF9
:101B3A00F9EA3EFA9000040204879000B3788DE631
:101B4A00FDA3E0FB22D23AC3ED9B788AF67886762B
:101B5A00012275F010A429F9EA35F022D23A788ADE
:101B6A00F678862274B9252DF582E43400F58322AD
:101B7A002543F8E4F60543E5432278AD76787F01FC
:101B8A00227B007A00792B22788AE6FF18E68FF00A
:021B9A00A42283
:1011A500E47880F61229F875E10175E24075A450DE
:1011B50075B287E4F5A912290AE4FF1228CDE4F5F2
:1011C50042F5437D01AF431229810543E543700292
:1011D5000542C39402E542940040E8E4F520C23A92
:1011E500C238C23EC23DC23C7880F6C28708F67856
:1011F50085F618F6788AF678AC7601F542F54374EB
:101205008C121B7A700205426420454270F1E4F5A8
:1012150042F54374AD121B7A7002054264204542C3
:1012250070F1E5EF20E10CE5EF5408D3940040039D
:10123500D38001C392037D08E4FF1228ACE47889CA
:10124500F67882F6121AE37882E6FF121AEBFE7838
:101255008926F6EE600578820680E9EFD394004092
:101265002A121AE3121B3212046EFF74551204B4CB
:1012750012046E64556002D23C74AA1204B41204BE
:101285006E64AA6002D23CEF1204B4E5EF5402D3B7
:10129500940040047F018002E4FF121C5C8F41E54D
:1012A5004120E037C23974FF9000B3F0A3F0A3F0FA
:1012B500A3F07E007F107D007B017A0079B91206CC
:1012C500FB7547FF75480E7549CA754A00754B1081
:1012D5007B017A0079B91224808002D2399029F4F1
:1012E5007D64121AF7AA06AB079029F3E493FF333E
:1012F50095E0FEEF24D0FFEE34FFFE7C037DE8127F
:1013050004E8EF2BFBEE3AFA9029F57D0A121AF75D
:10131500EF2BFFEE3AFEA3E493FD3395E0FCED24BD
:10132500D0FDEC34FFCD2FFFED3E9000B7F0A3EFDD
:10133500F0E54120E16AE4F542F543121B0B121A70
:10134500E38F828E83120487604D121B3820E23CA6
:10135500E4F540E540C378AC965031121B0B121AE8
:10136500E38F828E83120487FF7E00C006C0077D4F
:1013750000121B0B121B2C7889E68540F0121B5FAF
:10138500FAD007D0061206FB054080C70543E543A2
:10139500700205420213407F011213CEC23B800743
:1013A500E4FF1213CED23BE4F542F5437A007B9677
:1013B5007D03AF431223DC0543E54370020542C3B9
:0813C5009402E542940040E4AB
:0113CD0022FD
:0300230002190DB2
:10190D00C0E0C0F0C083C082C0D075D000C000C0A0
:10191D0001C002C003C004C005C006C00730993A1B
:10192D00C2997885067985E77881667016F678858F
:01193D00F6B3
:0E193E0075290A00752A0300D52AFCD529F563
:04194C00C2878017B7
:0E19500075291400752A0300D52AFCD529F547
:10195E007885E624ADF8E6F5992098030219F6206D
:10196E009A07203A04C298807BC29A7884E60624AD
:10197E008CF8A699C2987884E6FFB40113788CE6A9
:10198E00FE70057884F68060EE54072402788BF69C
:10199E00EFB4020E788BE6B40908788DE62403794D
:1019AE008BF77884E6FFB420047600803BEFC37893
:1019BE008B9640347884E624FFFDE434FFFC7B00F4
:1019CE007A00798C12204A7884E6248BF8E66F60D0
:0319DE0002801173
:0E19E10075291400752A0300D52AFCD529F5B6
:1019EF001207D878847600D007D006D005D004D05F
:1019FF0003D002D001D000D0D0D082D083D0F0D08D
:021A0F00E032C3
:102607008F3A8B3B8A3C893DEA494B601612046E30
:10261700FFE53AFD7C00120003AB3BAA3CA93DEF66
:032627001204B4E6
:0E262A00753E1400753F0300D53FFCD53EF50C
:0E263800853A997F011228ED3099FDC2992252
:062925007881EFF6D28775
:0E292B00753A1400753B0300D53BFCD53AF518
:0629390078ADE6F59922DD
:10264600C9EFC9E96401701FEDC39B402778ACE66A
:10265600FFEB2FFFE433FEEDC39FEE6480F874803A
:10266600985011121B4F22B90210ED6B7006121B07
:0B26760066760222C23AE47886F62263
:10252200C9EFC9BAFF11BBFF0EED6B7002EC6A7006
:1025320038121B66E9F622E96401701CC3ED9BECBC
:102542009A401378ACE62BFFE43AFEC3ED9FEC9E73
:102552005004121B4F228011B90214ED6B7002EC71
:102562006A7006121B66760222C23AE47886F62266
:1007D800788CE6FF54F8F52CEF1206D508210908A5
:1007E800280A082F100838110846120854190864F6
:1007F8001A087820087E2808D92909993309D43796
:1008080009F9390A08410A11490A1A500A546109B2
:100818005F700A4C9800000A6F121B447F01801811
:10082800121B1C7F01801FD23A78867603020A6F5A
:100838009000B5121B477F02122646020A6F9000ED
:10084800B5121B1F7F02122522020A6F121B447F5A
:1008580001122646203A03020A6F800E121B1C7FE3
:1008680001122522203A03020A6F121B84020A6C25
:1008780075EF10020A6F120E0A7F18120E707F05AC
:100888001226077882E6120E489000B3120DFE90E9
:1008980000B4120DFE9000B5120E229000B6120E92
:1008A800229000B7120E3C9000B8120E3CE4F52DD1
:1008B800121B6EE0120E48052DE52DC3941040F072
:0E08C800120E530075390300D539FCD538F5F2
:1008D60002094C788DE6FFC37882965070EF121AA3
:1008E600DCE92FF9EA3E8B35F5368937120E0A7F99
:1008F6000D122607AB35AA36A937120E2E90000127
:10090600120DD6900002120DD6900003120DEA9039
:100916000004120DEAE4F52DAB35E5372405F9E4BC
:100926003536FA7E00E9252DF9EE3AFA120E2E0535
:080936002DE52DC3940840E0FB
:0E093E00120E530075390300D539FCD538F57B
:10094C00C287D2AC020A6F78AD7678E408F67F02E3
:10095C00020A6C1229BD786112062E78AD767C786D
:10096C0061E678AEF67862E678AFF67863E678B052
:10097C00F67864E678B1F67C007D057B007A007928
:10098C00AD12204A78B2EFF67F06020A6C788DE63B
:10099C00FFB4011008E6FD08E69000B3CDF0A3ED1E
:1009AC00F0020A4CEFB4020A788EE69000B3F00223
:1009BC000A4C788DE6B4030D08E6FF08E69000B506
:1009CC00CFF0A3EFF0020A4CE4F52DE52DC3788DA2
:1009DC00965013748E252DF8E6FF121B6EEFF00562
:1009EC002DE52DB410E5E49000C8F08053120E856F
:1009FC00788DE6FDE4FF1228AC020A6F788DE624B0
:100A0C00FF9202805E788DE624FF92018055788AF1
:100A1C00E66005752F02800B203D05752F038003C2
:100A2C00752F0178AD767908A62F120E6278AFEF8C
:100A3C00F67F03122925E52F64017027D23E800230
:100A4C00D238788076F1801B7F00120EB078AD76AC
:100A5C0079788DE678AEF6120E6278AFEFF67F03FA
:100A6C00122925E52C64A06003020C0D788CE66439
:100A7C00A16003020B30798DE7C3788296400302A4
:100A8C000B2A121AE3788DE6FF121AEBF52FEF12F0
:100A9C001B5C121B3D30E226788DE6FF122A188F64
:100AAC002F78AD767F08A62FE52F2402120E9374B3
:100ABC00AF252FF8EFF6E52F2403FF020C0A788DF3
:100ACC00E6FF122A18C2ACE4F52BD287E52FD3949B
:100ADC00064022121B8B7F7F120E70AF2F1226073F
:100AEC00E4F52DE52DC3952F5007120D9A052D8099
:100AFC00F2052F8018E52F2478120E7AE4F52DE5F7
:0D0B0C002DC3952F5007120D9A052D80F274
:0E0B1900120EA10075390300D539FCD538F550
:100B2700020C01121B84020C0A788CE664A2600393
:100B3700020C0D7882E6FF788DE6FEC39F40030224
:100B47000C0708E6FDC39F4003020C07EE9D400318
:100B5700020C0718E6F52DE4F533F534E52DD378C7
:100B67008E965018AF2D122A18121AE3121AE92579
:100B770034F534E43533F533052D80E0C2ACE4F5C4
:100B87002BD287FB7A00792B7F7F122607C3E534A8
:100B97009480E533940050028007E5334480120EB9
:100BA7007AAF34121B8B122607788DE6F52DE52DCB
:100BB700D3788E965036E4F52E121AE3121AE9FF0F
:100BC700E52EC39F5022E52D121ADC121B2C121B97
:100BD70092252EF582E435F0F583120487FF121B68
:0C0BE7008B122607052E80D1052D80C240
:0E0BF300120EA10075390300D539FCD538F576
:100C0100C287D2AC8006121B84122925E52C6458B8
:100C1100703DFA7B327D01788AE6FF1223DC753D57
:100C210000753E00753FAE7B007A00798D12272159
:100C31008F2FE52F247878ADF6E52F2401120E933E
:100C410074AE252FF8EFF6E52F2402FF122925E5D2
:100C51002C64806009E52C64886003020D99788614
:100C6100E6B40105120E858014E4F52DE52DC37857
:100C7100AC965009AF2D120EB0052D80EF788CE6A1
:100C81005407F52FB4070A752E0108E6F52F0880E1
:100C910005E4F52E788DE6F530152FE530C3788221
:100CA100964003020D77121AE3E530121AEBFFE5C5
:100CB1002FD39F40028F2F7886E6B40109788AE608
:100CC100F532F5318009E4F53178ACE614F5327886
:100CD1008AA631788AE6D395324003020D6BE4F59A
:100CE1002DE52DC3952F5077121ADA121B3820E209
:100CF100699000011204876438702AE52FD39404A7
:100D0100400BE52E252D248EF8E6FD80387884E60B
:100D1100C3952DFF748A2FF8E6FD121ADAE92FF92F
:100D2100EA3EFA8020121AE375F010E530121AEE4D
:100D3100FFC37884E69F252D252E248BF8E6FDE55B
:100D410030121B5CFA121B32121B92FFE52D2FF59C
:100D510082E435F0F583ED1204C6052D020CE2AFF5
:100D610030122388788A06020CD4788AA631E52CC1
:100D710064887024800FE530B4FF1D788EE6F5207D
:100D8100E52CB4881378AD76787884E6248BF8E680
:080D910078AEF67F021229255D
:100D990022788DE675F010A4FFAEF09011A212062C
:100DA90099E92FF9EA3EFA90000D1206A5788AE62C
:100DB900FF18E68FF0A4252DF582E435F0F58312AE
:100DC9000487FF7B007A00792B12260722AB35AA0C
:100DD90036A937120487FF7B007A00792B12260780
:100DE90022AB35AA36A937120487FF7B007A00792E
:100DF9002B12260722E0FF7B007A00792B122607A7
:100E090022C2ACE4F52BD287FB7A00792B7F7F12C3
:100E190026077B007A00792B22E0FF7B007A007994
:100E29002B1226072212046EFF7B007A00792B12FF
:100E3900260722E0FF7B007A00792B12260722FF82
:100E49007B007A00792B122607227B007A00790031
:100E5900AF2B12260775380A227C007D027B007AA7
:100E69000079AD12204A221226077B007A00792BDD
:100E790022FF7B007A00792B122607227A007B3227
:100E89007D01788AE6FF1223DC22FDE433FC7B0036
:100E99007A0079AD12204A227B007A007900AF2BC3
:100EA90012260775380A227A007B327D011223DC6B
:010EB9002216
:106800007880E664F16003026E16E4F545F546789B
:0468100081E660209D
:0E681400754B0A00754C0300D54CFCD54BF5B6
:106822000546E5467002054564107004E545642797
:1068320070DBC2AFE4F5D9F541F54020982FE4F5BD
:1068420045F546209823C3E5469488E545941350C0
:01685200182D
:0E685300754B0A00754C0300D54CFCD54BF577
:106861000546E54670DE054580DAB29080CE859911
:1068710040C298E540641A6003026946F545F54651
:0E688100209823C3E5469488E54594135018EB
:0E688F00754B0A00754C0300D54CFCD54BF53B
:10689D000546E54670DE054580DA309893859941C9
:1068AD00C298E4F545F546209823C3E5469488E55E
:0568BD00459413501882
:0E68C200754B0A00754C0300D54CFCD54BF508
:1068D0000546E54670DE054580DA20980302683DEE
:1068E000859941C298E4F545F546209823C3E546CD
:0868F0009488E545941350184B
:0E68F800754B0A00754C0300D54CFCD54BF5D2
:106906000546E54670DE054580DA20980302683DB7
:09691600859941C298D287C2990B
:0E691F00754B1400754C0300D54CFCD54BF5A0
:06692D007599783099FD18
:0E693300754B0A00754C0300D54CFCD54BF596
:10694100C287026E08E540645060030269DBF545C9
:10695100F546209823C3E5469488E54594135018DD
:0E696100754B0A00754C0300D54CFCD54BF568
:10696F000546E54670DE054580DA20980302683D4E
:09697F00859941C298D287C299A2
:0E698800754B1400754C0300D54CFCD54BF537
:086996007599793099FDC29951
:0E699E00754B1400754C0300D54CFCD54BF521
:0869AC007599013099FDC299B3
:0E69B400754B1400754C0300D54CFCD54BF50B
:0669C200E4F5993099FD97
:0E69C800754B0A00754C0300D54CFCD54BF501
:0F69D600C287026E08E54064017041D287C29902
:0E69E500754B1400754C0300D54CFCD54BF5DA
:0869F3007599783099FDC299F5
:0E69FB00754B1400754C0300D54CFCD54BF5C4
:066A0900E4F5993099FD4F
:0E6A0F00754B0A00754C0300D54CFCD54BF5B9
:106A1D00C287026E08E54064026003026AE5F5452F
:106A2D00F546209823C3E5469488E5459413501800
:0E6A3D00754B0A00754C0300D54CFCD54BF58B
:106A4B000546E54670DE054580DA20980302683D71
:106A5B00859941C298E4F542E54113B39290E54123
:106A6B0025E0FEC3E49400EE9468502AE5417F00D4
:106A7B0025E0FEC3943A501E758F038E478F4875E1
:106A8B00B7A57880E6F5B7854882854783E4F05350
:0D6A9B00B6F0F58F80037542FFD287C299D7
:0E6AA800754B1400754C0300D54CFCD54BF516
:086AB6007599783099FDC29931
:0E6ABE00754B1400754C0300D54CFCD54BF500
:066ACC008542993099FD9E
:0E6AD200754B0A00754C0300D54CFCD54BF5F6
:106AE000C287026E08E54064036003026C2FF5451F
:106AF000F546209823C3E5469488E545941350183D
:0E6B0000754B0A00754C0300D54CFCD54BF5C7
:106B0E000546E54670DE054580DA20980302683DAD
:106B1E00859941C298E4F545F546209823C3E5468C
:086B2E009488E545941350180A
:0E6B3600754B0A00754C0300D54CFCD54BF591
:106B44000546E54670DE054580DA20980302683D77
:106B5400859943C298E541139290E54125E0FEC32F
:106B6400E49400EE9468400302683DE5417D00250D
:106B7400E0FCC3943A400302683D758F01E5437518
:106B8400F020A42DFFE5F03CF5478F48E4F544E5FB
:106B940044C394205051E4F545F546209823C3E5B9
:096BA400469488E545941350184D
:0E6BAD00754B0A00754C0300D54CFCD54BF51A
:106BBB000546E54670DE054580DA20980302683D00
:106BCB0075B7A57880E6F5B70548E548AE4770027E
:106BDB00054714F5828E83E599F0C298054480A889
:076BEB00E4F58FD287C29987
:0E6BF200754B1400754C0300D54CFCD54BF5CB
:086C00007599783099FDC299E5
:0E6C0800754B1400754C0300D54CFCD54BF5B4
:066C1600E4F5993099FD40
:0E6C1C00754B0A00754C0300D54CFCD54BF5AA
:106C2A00C287026E08E54064046003026CE3F5451E
:106C3A00F546209823C3E5469488E54594135018F1
:0E6C4A00754B0A00754C0300D54CFCD54BF57C
:106C58000546E54670DE054580DA20980302683D62
:106C6800859941C298E54125E0F549754A00E4F562
:106C780042F545F546054AE54AAE4970020549140C
:106C8800F5828E83E4932542F5420546E546700277
:0E6C980005457004E545640270DBD287C299A1
:0E6CA600754B1400754C0300D54CFCD54BF516
:086CB4007599783099FDC29931
:0E6CBC00754B1400754C0300D54CFCD54BF500
:066CCA008542993099FD9E
:0E6CD000754B0A00754C0300D54CFCD54BF5F6
:106CDE00C287026E08E54064056003026E00F5454A
:106CEE00F546209823C3E5469488E545941350183D
:0E6CFE00754B0A00754C0300D54CFCD54BF5C8
:106D0C000546E54670DE054580DA20980302683DAD
:106D1C00859941C298E4F545F546209823C3E5468C
:086D2C009488E545941350180A
:0E6D3400754B0A00754C0300D54CFCD54BF591
:106D42000546E54670DE054580DA20980302683D77
:096D5200859943C298D287C299C9
:0E6D5B00754B1400754C0300D54CFCD54BF560
:086D690075997F3099FDC29974
:0E6D7100754B1400754C0300D54CFCD54BF54A
:106D7F007599203099FDE54125E0FCE54375F0203C
:106D8F00A42400FFE5F03CF5498F4AE4F542F544B1
:026D9F00C29997
:0E6DA100754B1400754C0300D54CFCD54BF51A
:106DAF00854A82854983E493F5993099FD054AE533
:106DBF004AAE497002054914F5828E83E493254249
:0B6DCF00F5420544E544B420C7C2991A
:0E6DDA00754B1400754C0300D54CFCD54BF5E1
:066DE8008542993099FD7F
:0E6DEE00754B0A00754C0300D54CFCD54BF5D7
:106DFC00C2878008E540B4060375EF10E5406407D0
:0A6E0C00600302683D7880F6D2AF03
:016E16002259
:102139007F001228ED20390B7A007B327D017F0068
:102149001223DC303C0B7A007B1E7D017F001223B9
:10215900DC303817303D147A007B327D01788AE60D
:10216900FF1223DCC238121DA6D239203B0C303DA8
:1021790009788076F1121DA6D23B303E08303D0524
:10218900C23E126800203D121229B0E47B2C7A016C
:0B219900F9F8C31205B75002D23D2236
:0B29E2001211A512213912281C80F8E8
:0226BC00C13F1C
:0A2A02009000CAE0FFE517C39F2211
:062A0C00EF24FF924122BD
:062A12009000C9EFF02264
:0C29CA008B198A1A891B9000CBEDF022BB
:0C29D6008B1C8A1D891E9000CAEDF022A7
:042A1D002040FD2236
:10288A00751900751A00751B00751C00751D0075F9
:10289A001E00E49000CAF0A3F0C240C2419000C9F1
:0228AA00F0221A
:102867009000CBE0D394004004C242800B9000CA92
:10287700E0D39400400CD242D240D2C5122A1D1296
:03288700288A227A
:10284300203F20D23FE4F591F592F593F594F59569
:1028530075910475C15D43C18043E681FF122A0C63
:0328630012288AAE
:01286600224F
:03003B00021A1195
:101A1100C0E0C083C082C0D075D000C000C001C08A
:051A210002C003C00734
:101A2600C244E5C054F02480606224C0601F24E0F4
:101A36006003021AB89000C9E025E0FFA242E43331
:101A46004FF5C2C2C5751700751800806730C12FE3
:101A56009000CBE0FFE518C39F5019204256AB1902
:101A6600AA1AA91BAF1805188F827583001204875E
:101A7600F5C28040122A02502ED242D2C58035309D
:101A86004106C2C4D2C5802CD2448028AB1CAA1DF4
:101A9600A91EAF1705178F82758300E5C21204C60B
:101AA600122A024009C2C1D2C412288A8006D2C1B3
:101AB6008002D244304408C2C5C2C4C2C1C244C2B4
:011AC600C05F
:101AC700D007D003D002D001D000D0D0D082D083AD
:031AD700D0E0322A
:0300730002296EF1
:10296E00C0E0C083C08253913F12288AD082D083A8
:03297E00D0E03274
:0427CD008F498D4A59
:1027D100122A1DAF49122A127B007A00794A7D0123
:1027E1001229CA7B007A00794B7D011229D6122861
:0327F10067AF4B84
:0127F40022C2
:0227F5008F450E
:1027F7008D468B47122A1DAF45122A127B007A009D
:1028070079467D021229CA7B007A0079007D011280
:0528170029D60228672C
:032A240002284342
:0216F3008F4125
:1016F500ED24FE60231460332402704C1217D7309A
:10170500E2101217E3120397E4FBFA798078C2021C
:10171500007D1217E30203977D021217F930E202EA
:1017250080267D101217EE7D0180117D231217F999
:1017350030E20280137D331217EE7D30AF41122760
:10174500CDEFFEEE4243800674FFF543F544E544D4
:10175500F47003E543F460667E00E54454C0780602
:10176500CEC313CE13D8F9FDAC06E4120392E4FB05
:10177500FA7980783E12016EC004C005C006C00724
:10178500E543FD7C00E4120392D003D002D001D0E2
:101795000012007D8F488E478D468C451217D73035
:1017A500E227AF48AE47AD46AC45E4FBFA79807811
:1017B500421200798F488E478D468C45800BE4F5A3
:1017C50048F5477546807545BFAF48AE47AD46AC51
:0117D50045CE
:1017D600227D03AF411227CD8F42E54222E4FDAFC1
:1017E600411227CDAC07E422AF411227CD75430045
:0D17F6008F4422AF411227CD8F42E54222E1
:10293F00E4F5D875D90475FB0175DA4675FC0143CA
:09294F00A40443E20143E240222A
:0E29A200BF0104E4F5D822BF020375D840221D
:032A27008FFC22FF
:100EBA000001000400080010002000400080010822
:100ECA005452454B343130000434000000536572EB
:100EDA0069616C4E00010010023400000045727214
:100EEA006F720000000100140134000000436F6EAD
:100EFA0074726F6C000100160134000000537461B3
:100F0A00747573000001001704180000017651700F
:100F1A00756D70000001001804180000017642691E
:100F2A00617300000001001C0406F70001496368B0
:100F3A0030000000000100200406F7000149636840
:100F4A0031000000000100240406F700014963682B
:100F5A0032000000000100280406F7000149636816
:100F6A00330000000001002C0406F7000149636801
:100F7A0034000000000100300406F70001496368EC
:100F8A0035000000000100340406F70001496368D7
:100F9A0036000000000100380406F70001496368C2
:100FAA00370000000001003C0418000001764441AB
:100FBA00433000000001006004180000017644413B
:100FCA004331000000010064041800000176444126
:100FDA004332000000010068041800000176444111
:100FEA00433300000001006C0418000001764441FC
:100FFA0043340000000100700418000001764441E7
:10100A0043350000000100740418000001764441D1
:10101A0043360000000100780418000001764441BC
:10102A00433700000001007C043400000072414490
:10103A0043300000000100400434000000724144C3
:10104A0043310000000100440434000000724144AE
:10105A004332000000010048043400000072414499
:10106A00433300000001004C043400000072414484
:10107A00433400000001005004340000007241446F
:10108A00433500000001005404340000007241445A
:10109A004336000000010058043400000072414445
:1010AA00433700000001005C04340000007242492A
:1010BA0041530000000100800234000008437572A9
:1010CA004761696E00010084040800000154306918
:1010DA006E740000000100860408000001543030DC
:1010EA00657874000001008A040800000154303158
:1010FA00657874000001008E0406F700094F6368E2
:10110A0030000000000100920406F700094F43680E
:10111A0031000000000100960406F700094F6368D9
:10112A00320000000001009A0406F700094F6368C4
:10113A00330000000001009E0406F700094F6368AF
:10114A0034000000000100A20406F700094F63689A
:10115A0035000000000100A60406F700094F636885
:10116A0036000000000100AA0406F700094F636870
:10117A0037000000000100AE013400000846726525
:10118A0071000000000100B2000000000000000031
:0B119A000000000000000000FF0ED26B
:1026BE00021500000411FA9632014C0004245265F2
:1026CE00763A203135342024000125000122000104
:1026DE0026000121FF080901000302050407060177
:0226EE000809D9
:1021A40012063A74092541F8E6FF3395E0FEEF780C
:1021B4000222E0FF3395E0FEEF24D0FFEE34FFFE71
:1021C4007C000204E82420F58274003EF58322EBAF
:1021D400FF3395E0FE740A2FF58274003EF58322E6
:1021E4002492F58274003EF583222440F582740023
:1021F4003EF583222460F58274003EF5832290002C
:0A22040000020616900018020622E0
:0213CE00A9076D
:1013D000E4FB1221D3E0C3648094B050061221D9FB
:1013E0007430F00BBB04EB90000B7D641221B6AAA5
:1013F00006AB0790000AE0FF3395E0FEEF24D0FF34
:10140000EE34FFFE7C037DE81204E8EF2BFBEE3A9E
:10141000FA90000C7D0A1221B6EF2BFFEE3AFEA3E4
:10142000E0FD3395E0FCED24D0FDEC34FFCD2FFF43
:10143000ED3E9000B7F0A3EFF0E4FB1221D3E0C340
:10144000648094B050061221D97430F00BBB04EBC9
:10145000E970030214EFE4FBEB1221ADC333CE338A
:10146000CED8F91221EE120646000000000BBB0890
:10147000E7E4FBEB1221ADC333CE33CED8F9122112
:10148000F8120646000000000BBB08E7E4FBEB1275
:1014900021ADC333CE33CED8F91221C9120646008E
:1014A0000000000BBB08E7E4FBEB1221ADC333CE19
:1014B00033CED8F91221E4120646000000000BBB1F
:1014C00008E790001C120646000000009000801201
:1014D000064600000000900086120646000000004C
:1014E0007E007F087D007B017A00798A1206FBE48A
:1014F000F5D175F1FF75F2FF75F3FF75A494F5A5AD
:10150000F590F5A6F5A0F5D4F5D5F5D643E104D2CE
:1015100028F522F526F523F524121FCD12293FAF19
:1015200014122A279000B2E514F0122A24122A215C
:10153000122A30122A2D122A2AE4FB7D247F181247
:1015400027F57B077D0A7F181227F57B047D097F2D
:10155000181227F5900084E4F0A37406F0D22975E0
:0215600021FF69
:011562002266
:10238800151FA81FA607A81FE6FF6402701A900071
:1023980016E0FE30E004D210800EEE30E104D211D7
:1023A8008006EE30E202D212EFC3940E401BA81F43
:1023B800E6FF94165013EF24F2FF7401A807088073
:1023C80002C333D8FC42218008A81FE6B40402D215
:0423D80029051F2292
:052A18008F3A7F00224F
:102721008B3A8A3B893C12046EAB3DAA3EA93F120B
:1027310004B4AB3AAA3BA93C900001120487AB3D1B
:0D274100AA3EA93F9000011204C67F0222AB
:10281C001220C2121FCD1215637F647E0012274E48
:10282C001225BF7F2C7E0112274E12220E12003E63
:07283C007F967E0002274E8B
:0F299300C2AF900016E522F0A3E526F0D2AF22E6
:101FCD0030101730300B7F011229A2C210C23080A1
:101FDD00097F021229A2C210D23030110D30310604
:101FED00C231C2118004D231C211301244E4F54520
:101FFD00AF45EF1221AEC333CE33CED8F91221C97E
:10200D00120616C004C005C006C007AF45EF122169
:10201D00AEC333CE33CED8F91221E4D007D006D0DB
:10202D0005D00412063A0545E545B408C3D232C2BF
:0D203D001230A004C2208002D2200229939C
:10156300E508B40913E4F508900084A3E0FB8508BB
:1015730045E4FD7F140225728508410508E50875D9
:10158300F00812044C85F008900084A3E0FB850862
:1015930045754601754700754800E4FD7F14121B2D
:1015A3009CEF14602014601D24027025122202E4B3
:1015B3002FFFE43EFEE43DFDE43CFC9000001206F8
:1015C3003AC221800CD221900000120646FFFFFF91
:1015D300FFC2AFC3E5416480948840030216CD1275
:1015E3002202EC12038D7BF77AE4791F783812011B
:1015F3006EC004C005C006C0071221A7C333CE3393
:10160300CED8F91221C9D007D006D005D0041221B3
:10161300A4C333CE33CED8F91221C9C083C08212FA
:1016230006167B007A247974784912016ED082D031
:10163300831221A4C333CE33CED8F91221C9C08378
:10164300C082120616C004C005C006C007900085FC
:10165300E025E0FF900084E033FE74BA2FF5827436
:101663000E3EF583E493FC740193FDE4120392A808
:1016730004A905AA06AB07D007D006D005D00412EB
:101683000277D082D08312063A30313E1221A7C3AB
:1016930033CE33CED8F91221C9C083C082120616C5
:1016A300C004C005C006C0071221A7C333CE33CE82
:1016B300D8F91221E4120622D007D006D005D004AF
:1016C300120079D082D08312063A122202C004C0DB
:1016D30005C006C0071221A7C333CE33CED8F912F3
:0F16E30021EED007D006D005D00412063AD2AFC0
:0116F20022D5
:1020C200E4F54174017E00A841088005C333CE3394
:1020D200CED8F9FFEF552160527A007B327D017F25
:1020E200011223DC74092541F8E64430FDC005AF36
:1020F20041EF1221AEC333CE33CED8F91221F812FA
:1021020006167B397A8E7963784612016E1203CBFA
:10211200AB07AA06D0057F101227A3AF417401A80E
:1021220007088002C333D8FCF452210541C3E541BC
:0621320064809488408DDA
:012138002284
:1025BF007B007A007941E4FD7F261222D5C2AFAFAE
:1025CF0044AE43AD42AC41E412038D7B337A937931
:1025DF007D783412016E7B3D7A2C790478C012001D
:1025EF007D90001C12063AAF44AE43AD42AC419011
:0725FF00008012063AD2AF82
:0126060022B1
:10220E00302961E4FFFEFDFC122208120314500E69
:10221E00C2AF90001812064600000000D2AF7FE752
:10222E007EFB7D8F7C401222081203146010400E3C
:10223E00C2AF900018120646408FFBE7D2AF7FCD9B
:10224E007ECC7D4C7C4612220812016E1203CB8F7F
:10225E00448E438D428C41AA43AB447D307F221283
:04226E002779C229E1
:012272002249
:10003E007D0112006A90008612063AD2AF7D02123E
:10004E00006A90008A12063AD2AF7D037F1812160C
:0B005E00F3C2AF90008E12063AD2AF42
:09006900227F181216F3C2AF2227
:032A2A000228433C
:022779008F458A
:10277B008D468A47EBF548122A1DAF45122A127B6C
:10278B00007A0079467D031229CA7B007A00790012
:08279B00E4FD1229D6022867B3
:032A2D0002284339
:0227A3008F4263
:1027A5008D438A44EBF545122A1DAF42122A127B4E
:1027B500007A0079437D031229CA7B007A007900EB
:0827C500E4FD1229D602286789
:10295800AB46AA47A9481205DCE4FFFEFDEC54C0CB
:06296800FCE4FBFAF92279
:032A300002284336
:0822D5008F458B468A478948BA
:1022DD008D49E4F54A122A1DAF45122A127B007A68
:1022ED000079497D011229CAAB46AA47A9487D0448
:1022FD001229D612286712295878C0C31205B77053
:10230D0003754A01122958F8C31205B77003754AAF
:10231D0002AB46AA47A9481205DCEC6480FC120505
:03232D00FCAF4AB8
:01233000228A
:10007600020437E86480F8E933E83360110460F07D
:10008600ED33EC337009E8FCE9FDEAFEEBFF2204F0
:1000960060DED3EB9FEA9EE99DE8C2E78CF0C2F7EB
:1000A60095F0400CE8CCF8E9CDF9EACEFAEBCFFBB7
:1000B60012040285D0F05804700320D5B3E804700A
:1000C600075002B2D502044192D5EC0460F7E4CCA5
:1000D600C0E0C398F8603B94186008400DD0E0FB80
:1000E600020419E4FBFAC9FC8028E830E406E4C9F6
:1000F600FBE4CAFCE830E305E4C9CACBFCE85407D4
:100106006010F8C3E913F9EA13FAEB13FBEC13FCDE
:10011600D8F130F52FC3E49CFCEF9BFFEE9AFEED81
:1001260099FDD0E0FBEF4E4D4C701222DB0302042A
:100136003EEC2CFCEF33FFEE33FEED33FDED30E706
:10014600EB020419EF2BFFEE3AFEED39FDD0E0FB92
:1001560050130BBB0003020441ED13FDEE13FEEF3B
:0801660013FFEC13FC02041965
:10016E00EC4D6011E8497017ED33EC3304600DE48B
:10017E00FCFFFEFD22E933E8330470F80204371267
:10018E00040258046009E4CC248150062850090268
:10019E00044128400302043EC0E0EB4A7044B9809B
:1001AE0006D0E0FB02042DEF4E701CBD8008EBFF65
:1001BE00EAFEE9FD80EBE98DF0A4FEE5F0020257C0
:1001CE00E9CDF9EAFEEBFFEF89F0A4FCE5F0CE896C
:1001DE00F0A42EFFE435F0CD89F0A42DFEE435F029
:1001EE008067EF4E7005BD80D780C3EF8BF0A4AC57
:1001FE00F0EE8BF0A42CFCE435F0F8EF8AF0A42C92
:10020E00E5F038FCE433CB8DF0A42CFCE5F03BF8A4
:10021E00EE8AF0A42CFCE5F038F8E433CF89F0A494
:10022E002CFCE5F038CF3400CE89F0A42FFFE5F09A
:10023E003EFEE433C98DF0A42EFEE5F039CD8AF0F2
:10024E00A42FFFE5F03EFEE43DFD33D0E0FB50076A
:10025E000BBB000F020441EC2CFCEF33FFEE33FE20
:06026E00ED33FD0204194E
:10027400020441EC5D046005E8590470030204378C
:10028400120402580460F6EC4860F2EC7004FDFEBF
:10029400FF22C860DB2481C85009C398600250065D
:1002A40002043E9850CAF582E9294B4A7005AB8294
:1002B40002042D75F0007C1A7880C3EF9BEE9AED52
:1002C40099400DC3EF9BFFEE9AFEED99FDE842F0D5
:1002D400DC23ACF0D0E0FFD0E0FED0E0FDAB822028
:1002E400E7101BEB60BAEC2CFCEF33FFEE33FEEDB2
:1002F40033FD020419E803F830E705C0F075F00097
:10030400EF2FFFEE33FEED33FD40B830E7C280AA95
:1003140074F8CC6480CCC86480C8F58204604FC390
:10032400EB9FF5F0EA9E42F0E99D42F0E89C45F02F
:10033400603C501DE5825FFFE582D313CB5BCBF4B9
:100344002B5582FB50280ABA002409B900200880E2
:100354001DE5825BFBE582D313CF5FCFF4C3132F7C
:100364005582FF50090EBE00050DBD00010CC3EB04
:100374009FF5F0EA9E42F0E99D42F0E89C45F0606A
:0903840007CC4820E701B3EC228C
:10038D0075F020800E75F010800575F0087D007EEB
:10039D00007F003392D530D503120593EC33401016
:1003AD00EF33FFEE33FEED33FDEC33FCD5F0ED22F4
:0E03BD00E5F0247EA2D513CC92E7CDCEFF2230
:1003CB00EDD2E7CD33EC3392D524814006E4FFFE2A
:1003DB00FDFC22FCE4CFCECDCC24E0501174FF8089
:1003EB00EDC3CC13CCCD13CDCE13CECF13CF047026
:0703FB00F030D5DE0205938E
:10040200E9D2E7C933E833F892D5EDD2E7CD33EC40
:0704120033FC5002B2D522B9
:10041900EC30E7100FBF000C0EBE00080DBD000444
:100429000BEB6014A2D5EB13FCED92E7FD2274FFF0
:10043900FCFDFEFF22E480F8A2D574FF13FC7D8049
:03044900E480EF5D
:03000000021E33AA
:0C1E3300787FE4F6D8FD7581CC021E7AA1
:10044C00C2D530F707B2D563F0FF05F030E70CB238
:10045C00D5F4048463F0FF05F080018430D502F4F8
:02046C00042268
:10046E00BB010689828A83E0225002E722BBFE028C
:09047E00E32289828A83E49322BF
:10048700BB010CE58229F582E5833AF583E022502A
:1004970006E92582F8E622BBFE06E92582F8E22274
:0D04A700E58229F582E5833AF583E493228E
:1004B400BB010689828A83F0225002F722BBFE0127
:0204C400F32221
:1004C600F8BB010DE58229F582E5833AF583E8F06C
:1004D600225006E92582C8F622BBFE05E92582C818
:0204E600F22200
:1004E800EF8DF0A4A8F0CF8CF0A428CE8DF0A42E28
:0204F800FE22E2
:1004FA00C2D5EC30E709B2D5E4C39DFDE49CFCEE1D
:10050A0030E715B2D5E4C39FFFE49EFE120727C366
:10051A00E49DFDE49CFC800312072730D507C3E461
:06052A009FFFE49EFE228B
:10053000BB010A89828A83E0F5F0A3E02250068796
:10054000F009E71922BBFE07E3F5F009E319228958
:0B055000828A83E493F5F0740193228B
:10055B00BB010789828A8302077C500B09C5F027F0
:10056B00F7C5F01937F722BBFE0D09F8E325F0F3B9
:10057B00C5F019E338F322F889828A837401932535
:08058B00F0C5F0F8E4933822FA
:0E059300C3E49FFFE49EFEE49DFDE49CFC2279
:1005A100EB9FF5F0EA9E42F0E99D42F0EC6480C8D1
:0605B10064809845F02271
:1005B700EB9FF5F0EA9E42F0E99D42F0E89C45F09A
:0105C7002211
:1005C800E86010ECA2E713FCED13FDEE13FEEF1349
:0405D800FFD8F02236
:1005DC00BB010789828A830206165005E9F80207D7
:1005EC0092BBFE05E9F802079E89828A830207AA5C
:1005FC00BB010789828A8302063A5005E9F8020694
:0A060C002EBBFE05E9F80207BA2232
:0C061600E0FCA3E0FDA3E0FEA3E0FF2257
:0C062200E0F8A3E0F9A3E0FAA3E0FB225B
:0C062E00ECF608EDF608EEF608EFF622F8
:0C063A00ECF0A3EDF0A3EEF0A3EFF02233
:10064600A8828583F0D083D08212065D12065D12E1
:10065600065D12065DE473E493A3C583C5F0C58306
:10066600C8C582C8F0A3C583C5F0C583C8C582C8FE
:010676002261
:09067700E6FB08E6FA08E6F922A8
:10068000FAE6FB0808E6F925F0F618E6CA3AF6227B
:09069000EBF608EAF608E9F6228F
:0C069900E493FB740193FA740293F922BD
:1006A500BB010DE58229F582E5833AF5830207C68C
:1006B5005007E92582F8020677BBFE07E92582F88F
:1006C5000207CFE58229F582E5833AF5830206998B
:1006D500D083D082F8E4937012740193700DA3A3B4
:1006E50093F8740193F5828883E4737402936860C8
:0606F500EFA3A3A380DFC8
:102480008B448A458946E4F54CF54DE54B154BAE3A
:102490004A7002154A4E6033AB47AA48A949120454
:1024A0006EFFAB44AA45A946054DE54DAC4C700204
:1024B000054C14F5828C83EF1204C6EF60CD7401D5
:1024C0002549F549E43548F54880C0AB44AA45A9FB
:0224D0004622A2
:1006FB00EF4E6012EF60010EEDBB010B89828A8316
:10070B00F0A3DFFCDEFA2289F05007F709DFFCA922
:0C071B00F022BBFEFCF309DFFCA9F02279
:101E3F000229E2E493A3F8E493A34003F68001F2AE
:101E4F0008DFF48029E493A3F85407240CC8C333A4
:101E5F00C4540F4420C8834004F456800146F6DF73
:101E6F00E4800B01020408102040809026B9E47E24
:101E7F00019360BCA3FF543F30E509541FFEE49368
:101E8F00A360010ECF54C025E060A840B8E493A32F
:101E9F00FAE493A3F8E493A3C8C582C8CAC583CA5A
:101EAF00F0A3C8C582C8CAC583CADFE9DEE780BE12
:0126F00000E9
:10072700BC000BBE0029EF8DF084FFADF022E4CCB6
:10073700F875F008EF2FFFEE33FEEC33FCEE9DEC7F
:10074700984005FCEE9DFE0FD5F0E9E4CEFD22EDC5
:10075700F8F5F0EE8420D21CFEADF075F008EF2F0F
:10076700FFED33FD4007985006D5F0F222C398FD00
:050777000FD5F0EA229D
:10077C00C5F0F8A3E028F0C5F0F8E5821582700208
:06078C001583E038F022A5
:0C079200E6FC08E6FD08E6FE08E6FF2293
:0C079E00E2FC08E2FD08E2FE08E2FF2297
:1007AA00E493FC740193FD740293FE740393FF2295
:0C07BA00ECF208EDF208EEF208EFF2227B
:0907C600E0FBA3E0FAA3E0F92234
:0907CF00E2FB08E2FA08E2F9225B
:00000001FF
