:0B22E500245265763A20383320240094
:10150900E52F75F010A4FFAEF0901146020C45E5E9
:101519002C75F010A4F58285F083020A97E493FFF5
:101529003395E0FEEF24D0FFEE34FFFE7C00020A83
:10153900F8E542C4F8540FC868FFE541C454F048BF
:10154900FE22900028788DE6FC08E6FDE0FAA3E08B
:10155900FB22E92FF9EA3EFA90000D020C51E92F1E
:10156900F9EA3EFA900004020A97900028788DE67D
:10157900FDA3E0FB22D232C3ED9B788AF67886760A
:10158900012275F010A429F9EA35F022D232788ABD
:10159900F6788622742E252CF582E43400F5832210
:1015A9002542F8E4F60542E5422278AD76787F01D6
:1015B900227B007A00792A22788AE6FF18E68FF0E2
:0215C900A4225A
:100D5000E47880F61222FB75E10175E24075A4503B
:100D600075B287E4F5A912222FE4FF1221F2E4F50F
:100D700041F5427D01AF4212227A0542E5427002FE
:100D80000541C39402E541940040E8E4F520C232F5
:100D9000C230C236C235C2347880F6C28608F678D0
:100DA00085F618F6788AF678AC7601F541F5427446
:100DB0008C1215A9700205416420454170F1E4F5DB
:100DC00041F54274AD1215A97002054164204541F8
:100DD00070F1E5EF20E10CE5EF5408D394004003F7
:100DE000D38001C392037D08E4FF1221D1E4788906
:100DF000F67882F61215127882E6FF12151AFE783E
:100E00008926F6EE600578820680E9EFD3940040EB
:100E10002A121512121561120A7EFF7455120AC4A5
:100E2000120A7E64556002D23474AA120AC4120AED
:100E30007E64AA6002D234EF120AC4E5EF5402D3F2
:100E4000940040047F018002E4FF1215CB8F40E53F
:100E50004020E037C23174FF900028F0A3F0A3F0E7
:100E6000A3F07E007F107D007B017A00792E120CAA
:100E7000A77546FF75470F7548F9754900754A1003
:100E80007B017A00792E121D5D8002D2319022EC16
:100E90007D64121526AA06AB079022EBE493FF337C
:100EA00095E0FEEF24D0FFEE34FFFE7C037DE812D8
:100EB0000AF8EF2BFBEE3AFA9022ED7D0A12152686
:100EC000EF2BFFEE3AFEA3E493FD3395E0FCED2417
:100ED000D0FDEC34FFCD2FFFED3E90002CF0A3EFC2
:100EE000F0E54020E16AE4F541F54212153A1215A9
:100EF000128F828E83120A97604D12156720E23C92
:100F0000E4F53FE53FC378AC96503112153A12151F
:100F1000128F828E83120A97FF7E00C006C0077D63
:100F20000012153A12155B7889E6853FF012158E8E
:100F3000FAD007D006120CA7053F80C70542E5424C
:100F400070020541020EEB7F01121432C23380079A
:100F5000E4FF121432D233E4F541F5427A007B9675
:100F60007D03AF42121C670542E54270020541C392
:080F70009402E541940040E405
:010F78002256
:0300230002125373
:10125300C0E0C0F0C083C082C0D075D000C000C061
:1012630001C002C003C004C005C006C00730993ADC
:10127300C2997885067985E77881667016F6788550
:01128300F674
:0E12840075280A0075290300D529FCD528F528
:04129200C286801779
:0E1296007528140075290300D529FCD528F50C
:1012A4007885E624ADF8E6F59920980302133C20EE
:1012B4009A07203204C298807BC29A7884E6062476
:1012C4008CF8A699C2987884E6FFB40113788CE66A
:1012D400FE70057884F68060EE54072402788BF65D
:1012E400EFB4020E788BE6B40908788DE62403790E
:1012F4008BF77884E6FFB420047600803BEFC37854
:101304008B9640347884E624FFFDE434FFFC7B00B4
:101314007A00798C1219EE7884E6248BF8E66F60F3
:0313240002801133
:0E1327007528140075290300D529FCD528F57A
:1013350012007678847600D007D006D005D004D088
:1013450003D002D001D000D0D0D082D083D0F0D04D
:02135500E03284
:101F7B008F398B3A8A3B893CEA494B6016120A7EB1
:101F8B00FFE539FD7C00120003AB3AAA3BA93CEFFD
:031F9B00120AC463
:0E1F9E00753D1400753E0300D53EFCD53DF5A3
:0E1FAC008539997F011222123099FDC29922C7
:06224A007881EFF6D28658
:0E22500075391400753A0300D53AFCD539F5FE
:06225E0078ADE6F59922BF
:101FBA00C9EFC9E96401701FEDC39B402778ACE6FD
:101FCA00FFEB2FFFE433FEEDC39FEE6480F87480CD
:101FDA0098501112157E22B90210ED6B7006121577
:0B1FEA0095760222C232E47886F622CF
:101DAF00C9EFC9BAFF11BBFF0EED6B7002EC6A7081
:101DBF0038121595E9F622E96401701CC3ED9BEC0E
:101DCF009A401378ACE62BFFE43AFEC3ED9FEC9EEE
:101DDF00500412157E228011B90214ED6B7002ECC3
:101DEF006A7006121595760222C232E47886F622C0
:10007600788CE6FF54F8F52BEF120C8100BF0900CF
:10008600C60A00CD1000D61100E41200F2190102D2
:100096001A011620011C280177290237330272370C
:1000A60002973902A64102AF4902B85002F2610135
:1000B600FD7002EA980000030D1215737F01801887
:1000C60012154B7F01801FD2327886760302030D0C
:1000D60090002A1215767F02121FBA02030D9000B5
:1000E6002A12154E7F02121DAF02030D1215737FE1
:1000F60001121FBA20320302030D800E12154B7F28
:1001060001121DAF20320302030D1215B302030ABA
:1001160075EF1002030D1206A87F1812070E7F0551
:10012600121F7B7882E61206E690002812069C9043
:10013600002912069C90002A1206C090002B120677
:10014600C090002C1206DA90002D1206DAE4F52C87
:1001560012159DE01206E6052CE52CC3941040F01E
:0E0166001206F10075380300D538FCD537F5C8
:100174000201EA788DE6FFC37882965070EF12157B
:100184000BE92FF9EA3E8B34F53589361206A87F40
:100194000D121F7BAB34AA35A9361206CC90000190
:1001A40012067490000212067490000312068890DE
:1001B4000004120688E4F52CAB34E5362405F9E492
:1001C4003535FA7E00E9252CF9EE3AFA1206CC050B
:0801D4002CE52CC3940840E067
:0E01DC001206F10075380300D538FCD537F552
:1001EA00C286D2AC02030D78AD7678E408F67F02B7
:1001FA0002030A1222A97860120BDA78AD767C78AB
:10020A0060E678AEF67861E678AFF67862E678B0BE
:10021A00F67863E678B1F67C007D057B007A007992
:10022A00AD1219EE78B2EFF67F0602030A788DE670
:10023A00FFB4011008E6FD08E6900028CDF0A3ED12
:10024A00F00202EAEFB4020A788EE6900028F00281
:10025A0002EA788DE6B4030D08E6FF08E690002A64
:10026A00CFF0A3EFF00202EAE4F52CE52CC3788D77
:10027A00965013748E252CF8E6FF12159DEFF005A3
:10028A002CE52CB410E5E490003DF08053120723CE
:10029A00788DE6FDE4FF1221D102030D788DE62464
:1002AA00FF9202805E788DE624FF92018055788A5B
:1002BA00E66005752E02800B203505752E03800336
:1002CA00752E0178AD767908A62E12070078AFEF61
:1002DA00F67F0312224AE52E64017027D236800285
:1002EA00D230788076F1801B7F0012074E78AD7687
:1002FA0079788DE678AEF612070078AFEFF67F03CD
:10030A0012224AE52B64A060030204AB788CE664EF
:10031A00A160030203CE798DE7C378829640030277
:10032A0003C8121512788DE6FF12151AF52EEF1270
:10033A00158B12156C30E226788DE6FF12006E8F4F
:10034A002E78AD767F08A62EE52E24021207317488
:10035A00AF252EF8EFF6E52E2403FF0204A8788DC8
:10036A00E6FF12006EC2ACE4F52AD286E52ED394DB
:10037A000640221215BA7F7F12070EAF2E121F7B7C
:10038A00E4F52CE52CC3952E5007120638052C806F
:10039A00F2052E8018E52E2478120718E4F52CE5CC
:0D03AA002CC3952E5007120638052C80F24A
:0E03B70012073F0075380300D538FCD537F526
:1003C50002049F1215B30204A8788CE664A26003A8
:1003D5000204AB7882E6FF788DE6FEC39F400302F8
:1003E50004A508E6FDC39F40030204A5EE9D400356
:1003F5000204A518E6F52CE4F532F533E52CD3789F
:100405008E965018AF2C12006E1215121215182563
:1004150033F533E43532F532052C80E0C2ACE4F532
:100425002AD286FB7A00792A7F7F121F7BC3E533A8
:100435009480E532940050028007E532448012072B
:1004450018AF331215BA121F7B788DE6F52CE52C03
:10045500D3788E965036E4F52D121512121518FF25
:10046500E52DC39F5022E52C12150B12155B1215B5
:10047500C1252DF582E435F0F583120A97FF121593
:0C048500BA121F7B052D80D1052C80C20F
:0E04910012073F0075380300D538FCD537F54B
:10049F00C286D2AC80061215B312224AE52B6458DD
:1004AF00703DFA7B327D01788AE6FF121C67753C3E
:1004BF0000753D00753EAE7B007A00798D12208865
:1004CF008F2EE52E247878ADF6E52E240112073114
:1004DF0074AE252EF8EFF6E52E2402FF12224AE520
:1004EF002B64806009E52B648860030206377886E9
:1004FF00E6B401051207238014E4F52CE52CC3782C
:10050F00AC965009AF2C12074E052C80EF788CE675
:10051F005407F52EB4070A752D0108E6F52E08804D
:10052F0005E4F52D788DE6F52F152EE52FC378828E
:10053F00964003020615121512E52F12151AFFE544
:10054F002ED39F40028F2E7886E6B40109788AE673
:10055F00F531F5308009E4F53078ACE614F53178F3
:10056F008AA630788AE6D395314003020609E4F56E
:10057F002CE52CC3952E507712150912156720E222
:10058F0069900001120A976438702AE52ED39404FB
:10059F00400BE52D252C248EF8E6FD80387884E677
:1005AF00C3952CFF748A2FF8E6FD121509E92FF970
:1005BF00EA3EFA802012151275F010E52F12151D64
:1005CF00FFC37884E69F252C252D248BF8E6FDE5C7
:1005DF002F12158BFA1215611215C1FFE52C2FF58D
:1005EF0082E435F0F583ED120AD6052C020580AFB3
:1005FF002F121EEB788A06020572788AA630E52B39
:10060F0064887024800FE52FB4FF1D788EE6F520E7
:10061F00E52BB4881378AD76787884E6248BF8E6EA
:08062F0078AEF67F0212224AA8
:1006370022788DE675F010A4FFAEF0901146120CEB
:1006470045E92FF9EA3EFA90000D120C51788AE637
:10065700FF18E68FF0A4252CF582E435F0F5831218
:100667000A97FF7B007A00792A121F7B22AB34AAF4
:1006770035A936120A97FF7B007A00792A121F7B69
:1006870022AB34AA35A936120A97FF7B007A007984
:100697002A121F7B22E0FF7B007A00792A121F7B38
:1006A70022C2ACE4F52AD286FB7A00792A7F7F1230
:1006B7001F7B7B007A00792A22E0FF7B007A007992
:1006C7002A121F7B22120A7EFF7B007A00792A12E8
:1006D7001F7B22E0FF7B007A00792A121F7B22FF13
:1006E7007B007A00792A121F7B227B007A0079002F
:1006F700AF2A121F7B75370A227C007D027B007AA6
:100707000079AD1219EE22121F7B7B007A00792A3D
:1007170022FF7B007A00792A121F7B227A007B3224
:100727007D01788AE6FF121C6722FDE433FC7B001B
:100737007A0079AD1219EE227B007A007900AF2A90
:10074700121F7B75370A227A007B327D01121C67E4
:01075700227F
:106800007880E664F16003026E16E4F544F545789D
:0468100081E660209D
:0E681400754A0A00754B0300D54BFCD54AF5BA
:106822000545E5457002054464107004E54464279B
:1068320070DBC2AFE4F5D9F540F53F20982FE4F5BF
:1068420044F545209823C3E5459488E544941350C4
:01685200182D
:0E685300754A0A00754B0300D54BFCD54AF57B
:106861000545E54570DE054480DAB28280CE859922
:106871003FC298E53F641A6003026946F544F54555
:0E688100209823C3E5459488E54494135018ED
:0E688F00754A0A00754B0300D54BFCD54AF53F
:10689D000545E54570DE054480DA309893859940CD
:1068AD00C298E4F544F545209823C3E5459488E561
:0568BD00449413501883
:0E68C200754A0A00754B0300D54BFCD54AF50C
:1068D0000545E54570DE054480DA20980302683DF1
:1068E000859940C298E4F544F545209823C3E545D1
:0868F0009488E544941350184C
:0E68F800754A0A00754B0300D54BFCD54AF5D6
:106906000545E54570DE054480DA20980302683DBA
:09691600859940C298D286C2990D
:0E691F00754A1400754B0300D54BFCD54AF5A4
:06692D007599783099FD18
:0E693300754A0A00754B0300D54BFCD54AF59A
:10694100C286026E08E53F645060030269DBF544CC
:10695100F545209823C3E5459488E54494135018E0
:0E696100754A0A00754B0300D54BFCD54AF56C
:10696F000545E54570DE054480DA20980302683D51
:09697F00859940C298D286C299A4
:0E698800754A1400754B0300D54BFCD54AF53B
:086996007599793099FDC29951
:0E699E00754A1400754B0300D54BFCD54AF525
:0869AC007599013099FDC299B3
:0E69B400754A1400754B0300D54BFCD54AF50F
:0669C200E4F5993099FD97
:0E69C800754A0A00754B0300D54BFCD54AF505
:0F69D600C286026E08E53F64017041D286C29905
:0E69E500754A1400754B0300D54BFCD54AF5DE
:0869F3007599783099FDC299F5
:0E69FB00754A1400754B0300D54BFCD54AF5C8
:066A0900E4F5993099FD4F
:0E6A0F00754A0A00754B0300D54BFCD54AF5BD
:106A1D00C286026E08E53F64026003026AE5F54432
:106A2D00F545209823C3E5459488E5449413501803
:0E6A3D00754A0A00754B0300D54BFCD54AF58F
:106A4B000545E54570DE054480DA20980302683D74
:106A5B00859940C298E4F541E54013B39282E54035
:106A6B0025E0FEC3E49400EE9468502AE5407F00D5
:106A7B0025E0FEC3943A501E758F038E468F4775E3
:106A8B00B7A57880E6F5B7854782854683E4F05352
:0D6A9B00B6F0F58F80037541FFD286C299D9
:0E6AA800754A1400754B0300D54BFCD54AF51A
:086AB6007599783099FDC29931
:0E6ABE00754A1400754B0300D54BFCD54AF504
:066ACC008541993099FD9F
:0E6AD200754A0A00754B0300D54BFCD54AF5FA
:106AE000C286026E08E53F64036003026C2FF54422
:106AF000F545209823C3E5459488E5449413501840
:0E6B0000754A0A00754B0300D54BFCD54AF5CB
:106B0E000545E54570DE054480DA20980302683DB0
:106B1E00859940C298E4F544F545209823C3E54590
:086B2E009488E544941350180B
:0E6B3600754A0A00754B0300D54BFCD54AF595
:106B44000545E54570DE054480DA20980302683D7A
:106B5400859942C298E540139282E54025E0FEC340
:106B6400E49400EE9468400302683DE5407D00250E
:106B7400E0FCC3943A400302683D758F01E5427519
:106B8400F020A42DFFE5F03CF5468F47E4F543E5FE
:106B940043C394205051E4F544F545209823C3E5BC
:096BA400459488E544941350184F
:0E6BAD00754A0A00754B0300D54BFCD54AF51E
:106BBB000545E54570DE054480DA20980302683D03
:106BCB0075B7A57880E6F5B70547E547AE46700281
:106BDB00054614F5828E83E599F0C298054380A88B
:076BEB00E4F58FD286C29988
:0E6BF200754A1400754B0300D54BFCD54AF5CF
:086C00007599783099FDC299E5
:0E6C0800754A1400754B0300D54BFCD54AF5B8
:066C1600E4F5993099FD40
:0E6C1C00754A0A00754B0300D54BFCD54AF5AE
:106C2A00C286026E08E53F64046003026CE3F54421
:106C3A00F545209823C3E5459488E54494135018F4
:0E6C4A00754A0A00754B0300D54BFCD54AF580
:106C58000545E54570DE054480DA20980302683D65
:106C6800859940C298E54025E0F548754900E4F566
:106C780041F544F5450549E549AE48700205481413
:106C8800F5828E83E4932541F5410545E54570027B
:0E6C980005447004E544640270DBD286C299A4
:0E6CA600754A1400754B0300D54BFCD54AF51A
:086CB4007599783099FDC29931
:0E6CBC00754A1400754B0300D54BFCD54AF504
:066CCA008541993099FD9F
:0E6CD000754A0A00754B0300D54BFCD54AF5FA
:106CDE00C286026E08E53F64056003026E00F5444D
:106CEE00F545209823C3E5459488E5449413501840
:0E6CFE00754A0A00754B0300D54BFCD54AF5CC
:106D0C000545E54570DE054480DA20980302683DB0
:106D1C00859940C298E4F544F545209823C3E54590
:086D2C009488E544941350180B
:0E6D3400754A0A00754B0300D54BFCD54AF595
:106D42000545E54570DE054480DA20980302683D7A
:096D5200859942C298D286C299CB
:0E6D5B00754A1400754B0300D54BFCD54AF564
:086D690075997F3099FDC29974
:0E6D7100754A1400754B0300D54BFCD54AF54E
:106D7F007599203099FDE54025E0FCE54275F0203E
:106D8F00A42400FFE5F03CF5488F49E4F541F543B5
:026D9F00C29997
:0E6DA100754A1400754B0300D54BFCD54AF51E
:106DAF00854982854883E493F5993099FD0549E536
:106DBF0049AE487002054814F5828E83E49325414D
:0B6DCF00F5410543E543B420C7C2991D
:0E6DDA00754A1400754B0300D54BFCD54AF5E5
:066DE8008541993099FD80
:0E6DEE00754A0A00754B0300D54BFCD54AF5DB
:106DFC00C2868008E53FB4060375EF10E53F6407D3
:0A6E0C00600302683D7880F6D2AF03
:016E16002259
:101B43007F0012221220310B7A007B327D017F004D
:101B5300121C6730340B7A007B1E7D017F00121C40
:101B6300673030173035147A007B327D01788AE68E
:101B7300FF121C67C2301217C7D23120330C303525
:101B830009788076F11217C7D2333036083035051D
:101B9300C23612680020351212229CE47B2C7A0193
:0B1BA300F9F8C3120BB15002D235223A
:0B22DA00120D50121B431222CE80F8A0
:10114900005EBCE2613FDD83C29C7E20A3FD1F419E
:101159009DC3217FFCA2401E5F01E3BD3E6082DC8E
:10116900237D9FC1421CFEA0E1BF5D0380DE3C627E
:10117900BEE0025CDF81633D7C22C09E1D43A1FF6E
:101189004618FAA427799BC584DA3866E5BB59075E
:10119900DB856739BAE406581947A5FB7826C49A4E
:1011A900653BD987045AB8E6A7F91B45C6987A243E
:1011B900F8A6441A99C7257B3A6486D85B05E7B92E
:1011C9008CD2306EEDB3510F4E10F2AC2F7193CD1E
:1011D900114FADF3702ECC92D38D6F31B2EC0E500E
:1011E900AFF1134DCE90722C6D33D18F0C52B0EEFE
:1011F900326C8ED0530DEFB1F0AE4C1291CF2D73EE
:10120900CA947628ABF517490856B4EA6937D58BDD
:101219005709EBB536688AD495CB2977F4AA4816CD
:10122900E9B7550B88D6346A2B7597C94A14F6A8BD
:10123900742AC896154BA9F7B6E80A54D7896B35AD
:0A1249000000000000002B96B9DD44
:0321350001090A93
:10173700151FA81FEDF6151FA81FEFF6A81FE6FF38
:10174700C3940222901146120C45E53F75F010A490
:10175700F58285F083020A97A81FE6FF25E025E0BA
:10176700246EF82275F010A4FFAEF0901146120C0B
:1017770045E92FF9EA3EFA90000D120C517889E6F7
:1017870022A81FE625E025E0246CF822E50975F07C
:1017970064A4FFC3E50B9FE50A95F022EF25E0253A
:1017A700E0246BF822EF25E025E0246DF822120BE8
:1017B700402400FFE5F0343A22151F151FA81F2209
:1019EE001217C0ECF608EDF6151F1217C0120C3CBC
:0619FE00E51F24FCF51FAB
:101A0400F80808E4F6A81FF608F6E51F2407F9A865
:101A14001FE6FE08E6FFC3099719E76480F8EE6441
:101A240080985031E51F2404F8120C238F828E8392
:101A3400120A97A81F080866FFE51F2403F8EFF6AB
:101A4400E690114993A81F0808F6A81F0806E6188F
:0B1A540070B80680B5A81F0808E6FF68
:071A5F00E51F2409F51F2219
:07000300ED6F90114993FF1E
:01000A0022D3
:1021D100EF701B7598D0E589540F4420F589438E23
:1021E10008ED90124893F58DD28ED2ACC2BCD2AF1D
:0121F10022CB
:10003E00E4F50FF50EF50DF50CF513F512F511F5BA
:10004E0010750864FF1217A3E4F6EF12178BE4F68F
:0F005E001217ACE4F6EF121763E4F60FBF02E6D9
:01006D002270
:10222F00D2AFD2A9C2BBE589540F4401F589E4F5B9
:0B223F008E758CAFF58AD28C02003E39
:021BAE00151F01
:101BB000A81FE4F61217435054EF121763E6FFD341
:101BC00094004032121788E6702CEF30E00D1217A7
:101BD0005FE6D3940140047D0180067D00A81FE6E6
:101BE000FF121FF512175F16E6600B1217ACE6FE28
:101BF000EF12178BEEF6121788E660011612175FC8
:0D1C0000E67004FD121FF5A81F06021BB4BC
:031C0D00051F228E
:03000B0002196A6D
:10196A00C0E0C0F0C083C082C0D0E8C0E0E9C0E0F7
:10197A00EAC0E0EBC0E0ECC0E0EDC0E0EEC0E0EFB2
:10198A00C0E0758CAFE50F2401FFE4350EFEE435A7
:10199A000DFDE4350C8F0F8E0E8D0DF50CD5081B41
:1019AA00E5132401FFE43512FEE43511FDE4351098
:1019BA008F138E128D11F510750864121BAE12006A
:1019CA000ED0E0FFD0E0FED0E0FDD0E0FCD0E0FB9E
:1019DA00D0E0FAD0E0F9D0E0F8D0D0D082D083D0ED
:0419EA00F0D0E03227
:10227A00121737500808E6FE1217A3EEF6051F05D7
:02228A001F2211
:101C67001217C0EAF608EBF6121737503EEF1217B5
:101C770063E67037A81FE6FB12178BE6702DA81FC7
:101C870008E625E004FFA81FE6FA121763EFF6A897
:101C97001F0808E6FE08E6FF7C007D0A120B0AEA29
:101CA7001217ADEFF6EB12178BE4F6E51F2404F5D8
:021CB7001F22EA
:101FF50012173750171217A3E66011A81F08E670CD
:10200500047F0180027F00A81F08EFF6A81FE67075
:102015000608E624FF9282A81FE6B4010608E62416
:08202500FF9283051F051F2235
:0C229C00C2AFAF0FAE0EAD0DAC0CD2AF58
:0122A8002213
:0C22A900C2AFAF13AE12AD11AC10D2AF3B
:0122B5002206
:10221200151FA81FEFF6A81FE67004F50AF50B308C
:0D2222003C081217935003E4F5D3051F226A
:1021F200D23CE4F50AF50BEF6004F509800375099A
:102202000AE4F5D975D2FF75D940F5D375EF0622E8
:0A22FB00C23CE4F50AF50BF5D92208
:10000E00050BE50B7002050A303C081217935003DE
:04001E00E4F5D32210
:0420B5008E5C8F5D51
:1020B900E4F55EF55FC3E55F955DE55E955C5016F9
:1020C9007FE87E03121C107F01122212055FE55F73
:0620D90070E3055E80DFEC
:0120DF0022DE
:041C10008E448F452A
:101C1400D3E54594FAE5449400500FEFD394004083
:101C240041007E0300DEFD1F80F185444685454763
:101C3400D3E54794FAE546940040157FFA7E0012F6
:101C44001C1074062547F54774FF3546F54680E0B9
:101C5400D3E5459400E54494004007AF47AE4612EF
:021C64001C1052
:011C6600225B
:081DFF008B4A8A4B894C8D4D83
:101E07007F01122212AB4EAA4FA9501217B5FE85B9
:101E17004A51854B52854C53E4FDEDC3954D501BFC
:101E2700EF2DF582E43EF583E493AB51AA52A95313
:101E37008D82758300120AD60D80DFAB4EAA4FA99B
:081E470050E4854DF0020B6B25
:0818E0008B458A4689478D48BB
:1018E8007880E664F1707A1222FBC2AF758F01AB83
:1018F80049AA4AA94B1217B57864F608EFF6AB4522
:10190800AA46A9477868120C3CE47866F67866E639
:10191800C3954850337868E475F001120C2C120A0C
:101928007E7867F675B7A57880E6F5B77867E6FF3D
:1019380078640806E618CCE6CC70010614F5828CAB
:1019480083EFF078660680C5E4F58F53B6F0AB49AF
:10195800AA4AA94B8548F0120B6BD2AFE4FF1221BB
:01196800F28C
:01196900225B
:101CB9007880E664F1704AC2AF1222FB758F03780F
:101CC90065763A087600E47864F675B7A57880E613
:101CD900F5B77865E6FE08E6F5828E83E4F07F01C4
:101CE9001222127866E426F618740236F61806E609
:101CF900C3940140D5E4F58F53B6F0D2AFFF12215A
:011D0900F2E7
:011D0A0022B6
:1017C700121CB9E4F543F544F549754A00754B43D6
:1017D7007B017A0079287D161218E0121838F54037
:1017E700E540C378AC965042E4F53F12174B60359D
:1017F700E53F12176B8540F0A429F9EA35F0FAEBBB
:10180700C0E0EAC0E0E9C0E012174BFD754900757A
:101817004A00754B43D0E0F9D0E0FAD0E0FB12184C
:10182700E0053F80C605400217E71218387880F6B2
:1018370022754112754234754900754A00754B434C
:0D1847007B007A0079417D021218E0E42256
:0315CB00CCEFCC96
:1015CE00E4F548F549F545F54E754F007550487BE5
:1015DE00017A0079287D16121DFF12166C7004E533
:1015EE004664127003434501EC606DE4F544E54436
:1015FE00C378AC965055E4F543901146120C45E570
:10160E00431217536040E54312176B8544F0A4292B
:10161E00F9EA35F0FAEBC0E0EAC0E0E9C0E090117B
:10162E0046120C4575F010E543121756FD754E0027
:10163E00754F00755048D0E0F9D0E0FAD0E0FB12BB
:10164E001DFF054380B305440215FC12166C700491
:0D165E00E546641270058000434502AF456B
:10166B0022754E00754F007550487B007A00794605
:0A167B007D02121DFFE547643422D2
:02213800C137AD
:1022640090003FE0FF900042E0C39F22900040E0D6
:06227400FFE554C39F22A8
:0B22F000EF24FF923990003FEDF02238
:06230E0090003EEFF022FA
:0C22B6008B568A578958900041EDF022A9
:0C22C2008B598A5A895B900040EDF02295
:042314002038FD224E
:10210B00755600755700755800755900755A00754E
:10211B005B00E4900040F0A3F0C238C23990003E5F
:0A212B00F0A3F0900042F0C23A2247
:10205B00900041E0D394004004C23B8010900040BC
:10206B00E0D394004004D23B80037F0022D238D2CD
:0C207B00C5122314A23AE433FF12210B1B
:012087002236
:1021AC00203721D237E4F591F592F593F594F59516
:1021BC0075910475C15D43C18043E681FDFF122218
:0421CC00F012210BE1
:0121D00022EC
:03003B0002135756
:10135700C0E0C083C082C0D075D000C000C001C04B
:0513670002C003C007F5
:10136C00E5C054F02480606024C0602024E0600359
:10137C0002141790003EE025E0FFA23BE4334FF54A
:10138C00C2C2C575540075550002141D30C12F9092
:10139C000041E0FFE555C39F5019203B74AB56AAA2
:1013AC0057A958AF5505558F82758300120A97F5CA
:1013BC00C2805E1222705046D23BD2C58053303967
:1013CC001B1222645016800B20C1183039151222C2
:1013DC00645009C2C4D2C5E004F08035D2C41221D5
:1013EC000B802EAB59AA5AA95BAF5405548F82754A
:1013FC008300E5C2120AD6122270400BC2C1D2C4BD
:10140C0012210BD23A800AD2C18006C2C5D2C4C204
:03141C00C1C2C08A
:10141F00D007D003D002D001D000D0D0D082D0835B
:03142F00D0E032D8
:0300730002002662
:10002600C0E0C083C08253913F12210BD082D0839F
:03003600D0E032E5
:0923050075E8C075BC808FD1227F
:10218600EF541FFEF5BB75E8808EBBC2AFC2EDD221
:10219600EC20ECFDD2AFE5BE540FFEADBD7C00E4F5
:0621A6002DFFEC3EFE22BD
:100F79000000000100020003010401050106010748
:100F89000004000500060007010001010102010338
:100F9900000F000E000D000C010B010A01090108E8
:100FA900000B000A00090008010F010E010D010CD8
:100FB90002000201020202030304030503060307F8
:100FC90002040205020602070300030103020303E8
:100FD900020F020E020D020C030B030A0309030898
:100FE900020B020A02090208030F030E030D030C88
:100FF900706D7470756C736572343130000434002F
:10100900000053657269616C4E0001000C023400E6
:1010190000004572726F7200000001001001340077
:101029000000436F6E74726F6C000100120134008E
:1010390000005374617475730000010013013400DA
:10104900000072617730303037000100140134003C
:101059000000726177303831350001001501340024
:101069000000726177313632330001001601340015
:101079000000726177323433310001001701340006
:1010890000007261773332333900010018013400EE
:1010990000007261773430343700010019013400DF
:1010A9000000726177343835350001001A013400C7
:1010B9000000726177353636330001001B013400B8
:1010C90000005472696D3000000001001C013400F9
:1010D90000005472696D3100000001001D013400E7
:1010E90000005472696D3200000001001E013400D5
:1010F90000005472696D3300000001001F023400C2
:101109000000506572696F64696301002002340050
:1011190000004475726174696F6E01002204080051
:101129000001754354000000000001002400000084
:1011390000000000000000000000000000FF100691
:10213A00021D00004C0000245265763A20313734E3
:10214A0020240001220001250001210002230000B1
:03215A000114006D
:101E4F00E0FF3395E0FEEF24D0FFEE34FFFE7C0081
:101E5F00020AF8EFFD3395E0FC74062DF58274004D
:101E6F003CF58322AE44AF457C007D08020B0A90FF
:101E7F000010E523F0A3E524F0D2AF2274017E0019
:0F1E8F00A8050822D297900022E0FEA3E0FF22D0
:02143200A90708
:10143400E4FF121E62E0C3648094B05006121E687A
:101444007430F00FBF04EB9000077D64121E4FAAA6
:1014540006AB07900006E0FF3395E0FEEF24D0FFD3
:10146400EE34FFFE7C037DE8120AF8EF2BFBEE3A24
:10147400FA9000087D0A121E4FEF2BFFEE3AFEA3EE
:10148400E0FD3395E0FCED24D0FDEC34FFCD2FFFDF
:10149400ED3E90002CF0A3EFF0E4FF121E62E0C3D7
:1014A400648094B05006121E687430F00FBF04EBD1
:1014B400E96016900024120BF20000000090001C5A
:1014C40074FFF0A3F0A3F0A3F075F1FF75F2FF75BC
:1014D400F3FF75A4DE75A5FF75A6FFE4F5D4F5D575
:1014E400F5D643E104F525F521F523F524121E9ED6
:1014F400C2977F1C122305122318D213D212D211C1
:05150400D210021A667E
:101EEB00151FA81FA607A81FE6FF6402701C900011
:101EFB0012E0FE30E002D228EE30E102D229EE30C1
:101F0B00E202D22AEE30E302D22BEFB40C02D21053
:101F1B00A81FE6B40D02D211A81FE6FFB40E02D221
:0A1F2B0012EFB40F02D213051F22BB
:05006E008F397F002224
:102088008B398A3A893B120A7EAB3CAA3DA93E129B
:102098000AC4AB39AA3AA93B900001120A97AB3C93
:0D20A800AA3DA93E900001120AD67F022237
:10228C00C2AF900012E525F0A3E521F0121E7E22CC
:06215E008F448D458B4605
:10216400E4F54712202D7B007A007947754D01ADC7
:1021740045AF441220E0E546654760037F01227FB6
:01218400005A
:012185002237
:101685007E007F087D007B007A007915120CA7E4A7
:10169500F544F545E54525E0FFE54433FE74792F2E
:1016A500F582740F3EF583E493754600F547747A29
:1016B5002FF582740F3EF583E493754800F54912C2
:1016C5001E73121E8B8005C333CE33CED8F9FBAA09
:1016D50006121E7374142FF58274003EF583E0FF25
:1016E500EB5FFB121E73EB7E00A805088006CEA2F9
:1016F500E713CE13D8F8FDAC06E54725E02415F829
:10170500C000E6FA08E6FBEDA849088005C333CE1C
:1017150033CED8F9FFEA4EFEEB4FD000A60608F609
:101725000545E545700205446440454460030216DD
:01173500991A
:011736002290
:101AD500C2A5C2917D0F121E8B8005C333CE33CEB6
:101AE500D8F9FFE5155EFAE5165F4A24FF92A6E5EB
:101AF500175EFEE5185F4E24FF9292121E8B80053D
:101B0500C333CE33CED8F9FFE5195EFAE51A5F4A3D
:101B150024FF92A4E51B5EFEE51C5F4E24FF929414
:101B2500D291C2911DC3ED6480948050A9D2A5C203
:0D1B3500A5D290C290D2A3C2A3D293C293B6
:011B42002280
:101A660020100920110620120330130B7A007B3256
:101A76007D017F00121C6730100CC21090001C7F85
:101A86002C121ABF922030110CC21190001D7F2C0F
:101A9600121ACA922130120CC21290001E7F2E1208
:101AA6001ABF922230130CC21390001F7F2E121AF7
:101AB600CA9223C2AF121E7E22E0FBE4FD12215E13
:0F1AC600EF24FF22E0FB7D0112215EEF24FF22BF
:101F3500900013E030E23E12229CC3EF951EFDEEA9
:101F4500951DFCD3ED9400EC940050028023C390C2
:101F55000021E09D900020E09C501A7A007B327DA4
:101F6500017F01121C67121E93121C10C2971222C8
:051F75009C8E1D8F1E73
:011F7A002244
:0C22CE00121E9E121D0B121F35021A6614
:101E9E0030280AC228121685121AD5D20830290EF9
:101EAE00C229C208C20B121E93121C10C297302BED
:101EBE0015C22BC208300B08C297C20BC22A80066D
:101ECE00D297D20BC22A302A11C208C20B300A0690
:0D1EDE00C20AC22A8004D20AC22A02228C43
:101D0B007D017F18122186AD07AC06E41209FB7B1F
:101D1B007B7A14791E783A120850900043120BE626
:101D2B007466FFFEFD7CBF900043120BCE12075F63
:101D3B007BCA7A547941783B120959900043120BB4
:101D4B00E6C2AF900043120BC2900024120BE6D2F6
:011D5B00AFD8
:011D5C002264
:032318000221ACF3
:02202D008F48DA
:10202F00EDC43333335480F5498B4A122314AF4830
:10203F0012230E7B007A0079497D021222B67B00B3
:0C204F007A007900E4FD1222C202205B3E
:1020E0008F488D498B4A8A4B894C122314AF481272
:1020F000230E7B007A0079497D011222B6AB4AAAF1
:0B2100004BA94CAD4D1222C202205B27
:10075800020A69E86480F8E933E83360110460F05C
:10076800ED33EC337009E8FCE9FDEAFEEBFF220407
:1007780060DED3EB9FEA9EE99DE8C2E78CF0C2F702
:1007880095F0400CE8CCF8E9CDF9EACEFAEBCFFBCE
:10079800120A3485D0F05804700320D5B3E80470E9
:1007A800075002B2D5020A7392D5EC0460F7E4CC84
:1007B800C0E0C398F8603B94186008400DD0E0FB97
:1007C800020A4BE4FBFAC9FC8028E830E406E4C9D5
:1007D800FBE4CAFCE830E305E4C9CACBFCE85407EB
:1007E8006010F8C3E913F9EA13FAEB13FBEC13FCF6
:1007F800D8F130F52FC3E49CFCEF9BFFEE9AFEED99
:1008080099FDD0E0FBEF4E4D4C701222DB03020A3B
:1008180070EC2CFCEF33FFEE33FEED33FDED30E7EB
:10082800EB020A4BEF2BFFEE3AFEED39FDD0E0FB71
:1008380050130BBB0003020A73ED13FDEE13FEEF1A
:0808480013FFEC13FC020A4B44
:10085000EC4D6011E8497017ED33EC3304600DE4A2
:10086000FCFFFEFD22E933E8330470F8020A691246
:100870000A3458046009E4CC248150062850090247
:100880000A73284003020A70C0E0EB4A7044B98042
:1008900006D0E0FB020A5FEF4E701CBD8008EBFF44
:1008A000EAFEE9FD80EBE98DF0A4FEE5F0020939EE
:1008B000E9CDF9EAFEEBFFEF89F0A4FCE5F0CE8983
:1008C000F0A42EFFE435F0CD89F0A42DFEE435F040
:1008D0008067EF4E7005BD80D780C3EF8BF0A4AC6E
:1008E000F0EE8BF0A42CFCE435F0F8EF8AF0A42CA9
:1008F000E5F038FCE433CB8DF0A42CFCE5F03BF8BC
:10090000EE8AF0A42CFCE5F038F8E433CF89F0A4AB
:100910002CFCE5F038CF3400CE89F0A42FFFE5F0B1
:100920003EFEE433C98DF0A42EFEE5F039CD8AF009
:10093000A42FFFE5F03EFEE43DFD33D0E0FB500781
:100940000BBB000F020A73EC2CFCEF33FFEE33FEFF
:06095000ED33FD020A4B2D
:10095600020A73EC5D046005E859047003020A6933
:10096600120A34580460F6EC4860F2EC7004FDFE9E
:10097600FF22C860DB2481C85009C3986002500674
:10098600020A709850CAF582E9294B4A7005AB8273
:10099600020A5F75F0007C1A7880C3EF9BEE9AED31
:1009A60099400DC3EF9BFFEE9AFEED99FDE842F0EC
:1009B600DC23ACF0D0E0FFD0E0FED0E0FDAB82203F
:1009C600E7101BEB60BAEC2CFCEF33FFEE33FEEDC9
:1009D60033FD020A4BE803F830E705C0F075F00076
:1009E600EF2FFFEE33FEED33FD40B830E7C280AAAD
:1009F60075F020800E75F010800575F0087D007E7C
:100A0600007F003392D530D503120BA3EC33401090
:100A1600EF33FFEE33FEED33FDEC33FCD5F0ED2284
:0E0A2600E5F0247EA2D513CC92E7CDCEFF22C0
:100A3400E9D2E7C933E833F892D5EDD2E7CD33EC08
:070A440033FC5002B2D52281
:100A4B00EC30E7100FBF000C0EBE00080DBD00040C
:100A5B000BEB6014A2D5EB13FCED92E7FD2274FFB8
:100A6B00FCFDFEFF22E480F8A2D574FF13FC7D8011
:030A7B00E480EF25
:030000000218548F
:0C185400787FE4F6D8FD7581CC02189B6B
:100A7E00BB010689828A83E0225002E722BBFE0276
:090A8E00E32289828A83E49322A9
:100A9700BB010CE58229F582E5833AF583E0225014
:100AA70006E92582F8E622BBFE06E92582F8E2225E
:0D0AB700E58229F582E5833AF583E4932278
:100AC400BB010689828A83F0225002F722BBFE0111
:020AD400F3220B
:100AD600F8BB010DE58229F582E5833AF583E8F056
:100AE600225006E92582C8F622BBFE05E92582C802
:020AF600F222EA
:100AF800EF8DF0A4A8F0CF8CF0A428CE8DF0A42E12
:020B0800FE22CB
:100B0A00C2D5EC30E709B2D5E4C39DFDE49CFCEE06
:100B1A0030E715B2D5E4C39FFFE49EFE120CD3C39F
:100B2A00E49DFDE49CFC8003120CD330D507C3E49A
:060B3A009FFFE49EFE2275
:100B4000BB010A89828A83E0F5F0A3E02250068780
:100B5000F009E71922BBFE07E3F5F009E319228942
:0B0B6000828A83E493F5F07401932275
:100B6B00BB010789828A83020D28500B09C5F02728
:100B7B00F7C5F01937F722BBFE0D09F8E325F0F3A3
:100B8B00C5F019E338F322F889828A83740193251F
:080B9B00F0C5F0F8E4933822E4
:0E0BA300C3E49FFFE49EFEE49DFDE49CFC2263
:100BB100EB9FF5F0EA9E42F0E99D42F0E89C45F09A
:010BC1002211
:0C0BC200E0FCA3E0FDA3E0FEA3E0FF22A6
:0C0BCE00E0F8A3E0F9A3E0FAA3E0FB22AA
:0C0BDA00ECF608EDF608EEF608EFF62247
:0C0BE600ECF0A3EDF0A3EEF0A3EFF02282
:100BF200A8828583F0D083D082120C09120C0912CC
:100C02000C09120C09E473E493A3C583C5F0C583F0
:100C1200C8C582C8F0A3C583C5F0C583C8C582C84C
:010C220022AF
:090C2300E6FB08E6FA08E6F922F6
:100C2C00FAE6FB0808E6F925F0F618E6CA3AF622C9
:090C3C00EBF608EAF608E9F622DD
:0C0C4500E493FB740193FA740293F9220B
:100C5100BB010DE58229F582E5833AF583020D3E5C
:100C61005007E92582F8020C23BBFE07E92582F82B
:100C7100020D47E58229F582E5833AF583020C45A9
:100C8100D083D082F8E4937012740193700DA3A302
:100C910093F8740193F5828883E473740293686016
:060CA100EFA3A3A380DF16
:101D5D008B438A448945E4F54BF54CE54A154AAE6B
:101D6D0049700215494E6033AB46AA47A948120A7D
:101D7D007EFFAB43AA44A945054CE54CAC4B700224
:101D8D00054B14F5828C83EF120AD6EF60CD7401EA
:101D9D002548F548E43547F54780C0AB43AA44A92B
:021DAD004522CD
:100CA700EF4E6012EF60010EEDBB010B89828A8364
:100CB700F0A3DFFCDEFA2289F05007F709DFFCA971
:0C0CC700F022BBFEFCF309DFFCA9F022C8
:101860000222DAE493A3F8E493A34003F68001F2A2
:1018700008DFF48029E493A3F85407240CC8C33389
:10188000C4540F4420C8834004F456800146F6DF58
:10189000E4800B0102040810204080902135E47E92
:1018A000019360BCA3FF543F30E509541FFEE4934D
:1018B000A360010ECF54C025E060A840B8E493A314
:1018C000FAE493A3F8E493A3C8C582C8CAC583CA3F
:1018D000F0A3C8C582C8CAC583CADFE9DEE780BEF7
:01215D000081
:100CD300BC000BBE0029EF8DF084FFADF022E4CC05
:100CE300F875F008EF2FFFEE33FEEC33FCEE9DECCE
:100CF300984005FCEE9DFE0FD5F0E9E4CEFD22ED14
:100D0300F8F5F0EE8420D21CFEADF075F008EF2F5D
:100D1300FFED33FD4007985006D5F0F222C398FD4E
:050D23000FD5F0EA22EB
:100D2800C5F0F8A3E028F0C5F0F8E5821582700256
:060D38001583E038F022F3
:090D3E00E0FBA3E0FAA3E0F922B6
:090D4700E2FB08E2FA08E2F922DD
:00000001FF
